:020000022000DC
:10600000000001205D63020045630200DD810200A3
:10601000496302004B6302004D6302000000000070
:106020000000000000000000000000004F630200BC
:106030005163020000000000536302005563020038
:1060400015D5020057630200A1DE0200B5E402008C
:1060500057630200C1DC0200D1D70200576302007F
:106060005763020057630200576302005763020040
:1060700057630200C9DF0200576302005763020042
:1060800057630200D972020057630200576302008F
:106090005763020057630200CD35030057630200C7
:1060A0005763020057630200576302005DE102007C
:1060B0005763020057630200000000000000000068
:1060C00057630200576302005763020057630200E0
:1060D000576302005763020057630200000000008C
:1060E00000000000000000000000000000000000B0
:1060F00000000000000000000000000000000000A0
:10610000000000000000000000000000000000008F
:10611000000000000000000000000000000000007F
:10612000000000000000000000000000000000006F
:10613000000000000000000000000000000000005F
:10614000000000000000000000000000000000004F
:10615000000000000000000000000000000000003F
:10616000000000000000000000000000000000002F
:10617000000000000000000000000000000000001F
:10618000000000000000000000000000000000000F
:1061900000000000000000000000000000000000FF
:1061A00000000000000000000000000000000000EF
:1061B00000000000000000000000000000000000DF
:1061C00000000000000000000000000000000000CF
:1061D00000000000000000000000000000000000BF
:1061E00000000000000000000000000000000000AF
:1061F000000000000000000000000000000000009F
:10620000314932480A1A02D0072291438D4630495B
:1062100030480A1A06D00722914381F309880222E6
:1062200082F314882C482D492D4A00F03CF82D4863
:106230002D492E4A00F037F82D482E492E4A00F0FD
:1062400032F82E482E492F4A00F02DF82E482F49BB
:106250002F4A00F028F82F482F49304A00F023F841
:106260002F483049304A00F01EF8304830490022AB
:1062700000F024F82F483049002200F01FF82F4A80
:1062800090471F481F49884205D00268043003B474
:10629000904703BCF7E700208646EC46002000212B
:1062A000274A9047FEE7884207D0521A05D0037864
:1062B00001300B700131013AF9D17047884202D0A8
:1062C00002700130FAE770470000012000E0002072
:1062D0000000012000000120A06B0400147C0020BD
:1062E000F47D0020B8630200B8630200B8DE03004A
:1062F000A06B0400147C0020147C0020C8E4030080
:10630000C8E40300C8E40300C8E40300C8E40300D1
:10631000C8E40300C8E40300C8E40300A06B040061
:10632000806D0400F47D0020F47D0020F47D0020C9
:1063300028A5002028A500202CA5002085630200A8
:106340005D2F0300FEE7FEE7FEE7FEE7FEE7FEE760
:10635000FEE7FEE7FEE7FEE700F002B8FFF7FCBF4E
:106360000F484FF00701884385460E4880470E4886
:10637000016841F470010160BFF34F8FBFF36F8F6D
:10638000FFF73EBF09480A490A4A884207D0521A15
:1063900005D0037801300B700131013AF9D1704713
:1063A00000000120318B030088ED00E084E203004F
:0863B000D0790020147C0020CC
:1063B8000048704720A50020022006F09BBD000081
:1063C8002DE9F04780460D4606F0A6FD0328044651
:1063D80010D8012D10D0022D30D05DB91A4800F028
:1063E8001DFD1A4B04EB440213449E78184B1B5DA9
:1063F800B34219D0BDE8F087144D00EB4002A9184C
:10640800AE5C4A78470052B1DFF84C900E484A46D5
:106418004FF4804100F0E9FC08B989F800803B1985
:106428002B449A780A4B1A55002EE3D0094B1B6867
:10643800002BDFD03046BDE8F047184700EB40049A
:10644800024804446678EFE7407C0020F67D00208F
:10645800117E00200C7E0020F47D002000780221AF
:10646800FFF7AEBF08B5094B1B7853B1002006F003
:1064780017FD012006F014FDBDE80840032006F0D2
:106488000FBDBDE8084006F017BD00BFF57D002030
:10649800F8B57B4C237805461BB100232370FFF722
:1064A800E1FF172D00F28880DFE805F00C1717438D
:1064B80054657680888D888D959A9A9A9A9AC4C9D7
:1064C800D1D9E4E4FFF7CEFF6E4800F0A7FC6E4B8D
:1064D800002204461A702046F8BD002006F0C6FCCB
:1064E800F8B1002006F0DCFC022D0CBF4FF4E1618E
:1064F8004FF47A61644B1D704FF400404FF47A7486
:106508000025E0FB01454FF4FA62002320462946A6
:1065180013F0DAFF00220146BDE8F840594800F0C0
:1065280064BC06F0B1FC022D0CBFC8214FF4C87141
:10653800E0E7002006F09AFC40B1002006F0B0FC2D
:106548004FF44871504B03221A70D5E706F09CFCB3
:10655800C821F7E7002006F089FC38B1002006F0D2
:106568009FFC4FF47A61484B0422EDE706F08CFC5F
:106578004FF4C871F7E7002006F078FC48B1002016
:1065880006F08EFC404B05221A7040F6CD410022E1
:10659800C2E706F079FCF5E7002006F0ABFC3A4BC1
:1065A80006221A70002240F26661B5E7002006F064
:1065B8006BFC354B07221A7000248CE701202070F1
:1065C80006F098FCEEE70120207006F093FC00220C
:1065D8004FF40051A0E706F07EFC2B4B0C22EAE7B3
:1065E8002A482B4E00F01AFCD5F1110504461CD0A0
:1065F800D8B9012D13D0C8235D434FF400474FF499
:106608007A7000214FF4FA620023C7FB050113F0EA
:106618005BFF224601461D4800F0E7FB04460220C6
:1066280006F032FC0123337055E7022006F038FCEF
:106638000023F8E7FFF716FF134B1222BBE7FFF71B
:1066480011FF002006F020FC0F4B1322B3E7FFF7E1
:1066580009FF012006F018FC0B4B1422ABE7FFF7EB
:1066680001FF002006F010FC012006F00DFC064B8F
:106678001522A0E706F02FFC034B1D709CE700BF16
:10668800087E0020687C0020107E0020187C0020F6
:10669800F57D0020044B1B68DB0703D5034B1878F6
:1066A800FFF7F6BE704700BF047E0020107E002072
:1066B80038B51C4B18601C4B10F0020405461960D5
:1066C8001AD01A4B1A480E221A700F22DA701022AA
:1066D8009A7111225A72042140F2333200F00CFAF6
:1066E800044648B900F05EFA044628B90146114A42
:1066F800114800F06FFB0446EB0711D5012006F0A6
:106708001DFC6CB921460D4A0D4800F063FB044698
:1067180030B9BDE838400B4A0B48012100F05ABB9C
:10672800204638BD047E00200C7E0020F67D002027
:1067380018E50300656402003CE503009D6602005D
:1067480040E50300C163020038E50300032811D8BF
:10675800012A0AD101290FD100F10E02D2B20D4B44
:1067680000EB40001A54002070470129F7D0022995
:1067780004D049B1072070470022F8E7054B00EB29
:10678800400018444270EEE7024B00EB400018440A
:106798008270E8E7F67D002008B50122022100207A
:1067A800FFF7D4FF08B1072810D1072202210120E2
:1067B800FFF7CCFF08B1072808D100210A220846B4
:1067C800FFF7C4FF10B1072808BF002008BD00006C
:1067D8000388102B10B502D0112B1ED010BD1A4CF7
:1067E8002168B1B901220846FFF7B0FF08B10728B0
:1067F80024D1072202210120FFF7A8FF08B10728AA
:106808001CD1042202210020FFF7A0FF08B10728AD
:1068180014D1236801332360E0E70B4A1368013B76
:106828001360002BDAD1FFF7B7FF0028D6D0074B4B
:106838001B68002BD2D0BDE810401847034B1B68DB
:10684800002BE6D09847E4E71C7E0020187E002045
:1068580009F01ABD0021084609F0C6BC10F1360F30
:106868000AD058B148F2165248F2115310F1380FB5
:1068780014BF10461846704748F21450704708B5C0
:106888000846114606F058FD002008BD30B50446FC
:1068980085B0002006F0C0FC054678B9201D03909D
:1068A80009F0E2F90649039800952B462A4609F0B3
:1068B80030FA05B0BDE83040FFF7D0BF05B030BDB5
:1068C8008768020008B5043009F0D3F906F0D0FC57
:1068D800002008BD08B5043009F0B2FABDE8084048
:1068E800FFF7BCBF08B5114604301A4609F0CFF9C6
:1068F800BDE80840FFF7B2BFC30710B507D4F023BF
:10690800054A4008145C23401943115410BD09017D
:10691800C9B20F23F4E700BF307E002030B5094B21
:106928001C78094B196800239C4202DC002210469F
:1069380030BD11F83350854201EBC302F7D0013363
:10694800F2E700BF207E0020407E002013B50446F9
:106958000191FFF7E3FF38B143682BB10199204655
:1069680002B0BDE81040184702B010BD034B044800
:1069780019680022490800F038BA00BF247E0020B8
:10698800907C002010B5C0B2FFF7C8FF044600781D
:1069980006F010FF63785A1E53425341834208D1D0
:1069A800044BD3E90023134303D1BDE81040FFF79C
:1069B800DDBF10BD287E002037B54308354AD35CBB
:1069C800C2074CBF1B0903F00F0304460D46042BF6
:1069D80035D8DFE803F003252C383C0079B30121D2
:1069E800FFF78AFF00230DF107008DF8073000F04C
:1069F800F3FA0120A4F12003C4F12001264A20FA69
:106A080001F100FA03F30B43A040D2E9004120430F
:106A18000B43C2E900039DF8070000F001FB0EE0FC
:106A2800002918BF02212046FFF766FF07E041B1A1
:106A38000321FFF761FF01212046FFF787FF03B01D
:106A480030BD0121EFE70029F9D10421EBE709B1B5
:106A58000321E8E7FFF750FF29462046FFF776FFB6
:106A68000DF107008DF8075000F0B6FA0120A4F1E7
:106A78002003C4F12001084A20FA01F100FA03F3C7
:106A88000B43A040D2E9004124EA000021EA0303B5
:106A9800BFE700BF307E0020287E00202DE9F041AE
:106AA800124E134F00243378A34208DC114BD3E96C
:106AB8000023134318D0BDE8F041FFF757BF3D68E6
:106AC80005EBC40815F8340006F074FE98F8013098
:106AD8005A1E53425341181A4142414115F8340095
:106AE800FFF76AFF0134DEE7BDE8F081207E002071
:106AF800407E0020287E0020092AF7B505460C466E
:106B080016463CD906F096FDD8B11E4B1E481D60AE
:106B18001E4B1F4F1C701F4B002110221E6014F0CB
:106B280088F91D4B00200021C3E90001013CE4B2B3
:106B38000326FF2C0BD1194A1948002100F04AF905
:106B480003E006F039FD0028DFD003B0F0BD9DF862
:106B5800063015F834008DF8046005EBC40223F004
:106B680007038DF8063001A993788DF805303A4669
:106B780006F06AFD013CE4B20028DAD0E5E7072018
:106B8800E3E700BF407E0020307E0020207E00200A
:106B98008D690200247E0020287E0020A56A02005C
:106BA80074E5030070B5084D084E00242B789C420C
:106BB80001D3002070BD3368012113F8340006F0BA
:106BC800B5FD0134F2E700BF207E0020407E0020A2
:106BD8001FB50021039001AA44F20100CDE901117B
:106BE80000F004F805B05DF804FB000010B572B6BB
:106BF80005F02AFE05F04CFC0028FBD1154C6288F4
:106C08004AB11548154B1649C01AC008000440F08F
:106C1800010005F0A7FD134B1B68DB0700D500BE7C
:106C28006388012B09D90C480C4B0F49C01AC008BE
:106C3800000440F0020005F095FDBFF34F8F0B49AB
:106C48000B4BCA6802F4E0621343CB60BFF34F8F6B
:106C580000BFFDE7547A002058E0030000E003007D
:106C680078E50300F0ED00E084E5030000ED00E0C6
:106C78000400FA05D0E90223D1E90201994208BFCC
:106C880090422CBF012000207047000008B50B4837
:106C980000F007FB0A4B0B49D3E900231218D1E98E
:106CA800000143F100038B4208BF824203D212F174
:106CB800807243F100031046194608BDCC7C0020C1
:106CC800487E0020B07E002037B505460C460A48AD
:106CD80001A901F072FB60B10570446001A9064882
:106CE80001F095FB18B1054800F0E0FA002003B068
:106CF80030BD0420FBE700BFB87C0020CC7C00201E
:106D080038B5194B1B78044613B90025284638BDF9
:106D18000028FAD090F8203003F0FF05002BF4D0BB
:106D2800FFF7B4FFD4E90223994208BF904216D373
:106D380023690BB984F82030D4E9053098472169D4
:106D48000029E2D094F8203003F0FF05002BDCD0B6
:106D5800D4E90223521843F10003C4E9022303488B
:106D6800214604F05FFED1E7507E0020B4E5030021
:106D780013B5114B1149186801900823104858227F
:106D880001F0E6FA044698B90E4A0F4801A900F046
:106D98006BF9044660B90C48012100F065FA01233B
:106DA8000A4A0948194600F0C7F9094B01221A7026
:106DB800204602B010BD00BFAEE50300547E00209F
:106DC800B87C0020416E0200CC7C0020FFFF7F00D1
:106DD800507E00203AB103685A614A1E514251411F
:106DE8001961002070470720704738B590F82030A7
:106DF80004460D4683B98261FFF748FF23694019AD
:106E080041F10001C4E9020103B1256121460020D6
:106E1800BDE83840FFF758BF002038BD00230146C1
:106E280080F820300120FFF74FBF0000014800F034
:106E380038BA00BFCC7C00202DE9F04F85B08046E1
:106E480000F01AFA40B15C4AD2E9003113F18073BC
:106E580041F10001C2E900310021404600F01BFA6F
:106E680038B1564E336823B13068FFF749FF002325
:106E780033600121404600F00EFA20B1FFF706FF0B
:106E88004F4BC3E900014F484C4F4F4EDFF840913C
:106E980003A901F0CCFA002846D1DFF82C91474E1F
:106EA800DFF830A1484604F0D3FD3368002878D0D5
:106EB80083B13368D0E90201D3E90223994208BFBC
:106EC80090422ED2336893F820301BB1316848467F
:106ED80004F0A8FD484604F0B5FDD0E902B3074622
:106EE8000193FFF7D3FE019BBBEB000463EB0105A5
:106EF800012C75F1000347DBB4F5350F42D3FFF7DA
:106F080095FF324A02444FF496030021504600F0A0
:106F180033F9002840D1336813B9404600F004F92A
:106F2800376005B0BDE8F08F0378012B1FD0022B26
:106F380009D14FF0000A304604F084FD002836D00D
:106F480080F820A0F7E74BB9416891F820302BB9B9
:106F5800012381F82030304604F064FD03A9194864
:106F680001F090FA03A9174801F061FA93E7416824
:106F78003B68994202D100233B60EFE7304604F0BA
:106F88006AFDEBE7BA68BEE70021504600F079F9E0
:106F98003846FFF7B5FE01E00D28F9D0002333602D
:106FA80080E7002BBDD1404600F0C2F8B9E70123C5
:106FB80089F80030D2E700BF487E0020B87E002064
:106FC800B07E0020B87C0020B4E50300FFFFB400C9
:106FD800507E0020CC7C002070B5EFF3108672B68E
:106FE8000C4A946801239CB993600B4B0B4DD3F862
:106FF800801029401160C3F88050D3F88410516084
:107008004FF0FF32C3F88420047006B962B670BD31
:107018000370FAE7BC7E002000E100E0FC06FFBD3B
:10702800084B9A6810B55AB150B9EFF3108172B68F
:10703800054A1C6814605C685460986001B962B6BF
:1070480010BD00BFBC7E002000E100E0435882B0C4
:107058003BB10023435043580193019B012002B0E8
:1070680070471846FBE70000F8B5264C4379264ED2
:1070780044F82320254C04EBC3031B7973B17388B0
:10708800012B09D92248234B2349C01AC008000400
:1070980040F0020005F066FB0820F8BD03680A8886
:1070A800C3F8082590F904508B7802795B01002D0C
:1070B800DBB221DB19494F1987F8003301236D0929
:1070C80002F01F0203FA02F241F82520437904EB8B
:1070D800C30244F8330073880121022B117109D9C6
:1070E8000B480C4B0E49C01AC008000440F00300BE
:1070F80005F038FB0020D0E70A4902F00F028B5454
:10710800E4E700BFD07E00205C7A0020C87E002023
:1071180068E0030000E00300C0E5030000E100E0D0
:10712800E2E5030014ED00E0036801221A607047ED
:10713800036801225A60704773B501F15005AD002C
:107148000068ADB24FF480348C400026C0F8084384
:10715800C0F84843465101F5A8714559019522F0F8
:107168007F42019D40F82120C0F844430BB1C0F88C
:10717800044302B070BD00002DE9F74F0D4622F020
:107188007F4402684FF4803705F150068F408046EF
:10719800B60002EB8500C2F84873B6B2C2F80873AD
:1071A800D2F8041599464FF0000BD0F84035C0F8D6
:1071B800401542F806B05B1A9259009223F07F43BB
:1071C800012B009A4FEA850A0CD1264B4FF48060B8
:1071D80043F001039847D8F8003043F806B09B59AC
:1071E8000193019BD8F80010D1F80465C1F84473E5
:1071F800A31B23F07F43012B1CD11A4B05F5A8755F
:10720800013443F0010341F825404FF4806098476A
:10721800D8F80030D3F804359E4209D1D8F80030A8
:107228000020C3F84473C3F8047303B0BDE8F08FBB
:107238000D20FAE78A44C9F1FF13CAF84045D1F88E
:107248000405221A013A22F07F4203F57F43934254
:10725800EED3002AE2D10134CAF84045D1F804350A
:107268009842DAE700E6030003680222C3F84423E1
:1072780009B1C3F80423704700684FF48271FFF71F
:10728800E5BE4FF4803303FA01F10368C3F84813ED
:10729800C3F80813704750318900006889B2FFF7B6
:1072A800D5BE0368D3F804057047000090F9043090
:1072B800002B09DB5A09012103F01F0301FA03F32C
:1072C8004032024941F82230704700BF00E100E037
:1072D800024B034A1B681068184700BFD07E002085
:1072E800C87E002070B5064D0646002455F8043BBC
:1072F8000BB1304698470134042CF7D170BD00BF5C
:10730800E07E0020033080B240F2FE33984230B570
:107318001FD8134B1A783AB91C895D892C44044448
:10732800A4B2B4F5806F0AD91A7DAAB99A8BDC8BFE
:107338002244024492B2B2F5806F0DD801220A802D
:107348001446142202FB04335A8910445881002041
:1073580030BD48F20860FBE748F20660F8E700BF76
:10736800147F00200B4A0C4B5188142000FB01317C
:10737800CB6833B90420496810700122074803F02C
:107388007DBD07490523137002238B8001220968FC
:107398000023F3E7F87E0020147F0020007C002003
:1073A800CC7F002007B5002305490093054A0968EA
:1073B8000548082303F0A2FC03B05DF804FB00BFF6
:1073C800CC7F002024E60300007C002007B50023C2
:1073D80001460093034A0448082303F08FFC03B0D6
:1073E8005DF804FB1CE60300007C002013B50023B5
:1073F8000C4600930146084A0848042303F07EFC23
:1074080038B90749142303FB04140123237402B079
:1074180010BD48F20D60FAE718E60300007C002072
:10742800147F002037B50A480A4B42689C881968BF
:1074380053880325033305709BB2002000909B00FE
:1074480001EB8401044803F059FC03B030BD00BFD0
:10745800F87E0020CC7F0020007C002010B501467B
:10746800044800F0AAFF1C220446002113F0E1FCA6
:10747800204610BDD47C002068B10268084B9A42AF
:1074880009D14068074B984207D00133984214BF8E
:10749800032001207047032070470020704700BF79
:1074A800DEC0ADDEFE011EF14388033300EB83032B
:1074B80099420BD382884FF6FF739A4208D003880B
:1074C80033B18068431C58425841704702207047C6
:1074D800012070472DE9F0410D460223154F2B80FE
:1074E800164600F5805100F108044FF001088C425F
:1074F8000ED2236801330BD02046FFF7D5FF48B1E1
:107508000EB186F80080022809D14FF480632B80E1
:10751800BDE8F081A3683A68934200D93B602B88A4
:107528006288033313442B806388033304EB83049A
:10753800DDE700BF0C7F002038B5144B14220D4640
:1075480002FB00302B68446804F58051A3B15C88C5
:10755800033403EB84048C4215D22368013312D020
:107568002046FFF7A1FF012808D002280BD00028E9
:10757800F1D12C60012038BD0834ECE7638803336F
:1075880004EB8304E7E70020F5E700BF147F002041
:10759800426873B504460D466AB3244BD9688A42DB
:1075A80029D31B699A4226D812F0030323D1204914
:1075B8000089098988421ED12068916888421AD1B9
:1075C8001C494868824203D900F5805082420DD395
:1075D80089698A420CD901F580518A4208D2012270
:1075E8002A80B3FA83F0400902B070BD1A46F7E763
:1075F80048F20963F5E700232B801E460196288888
:1076080001A9FFF799FF30B92B8801339BB2012BF1
:107618002B80F3D9E8E7019B226899689142EED163
:107628006360034B1B892381DEE700BF007C0020D9
:10763800F87E0020147F00202DE9F8431C461D4BDE
:107648001B7806460F46154673B382B37CB3DFF842
:107658006C804FF01409A388012B02D948F2096005
:1076680020E009FB03F318F803302BB9A088214662
:10767800FFF762FF20B92060A3880133A380EAE7FF
:1076880023681EB1998832889142EFD11FB11988B9
:107698003A889142EAD19A68C5E90023064B1B89CA
:1076A8002B810020BDE8F88348F20160FAE748F230
:1076B8000460F7E7F07E0020F87E0020147F0020A9
:1076C80008B5074B5888191DFFF736FF18B1BDE8F4
:1076D8000840FFF7A7BEBDE80840FFF743BE00BF5C
:1076E800F87E00202DE9F04FA44FDFF8B49289B05E
:1076F8000646B8463B6823B9A148494600F097FEBC
:107708003860D8F8005029784B1E052B07D8DFE8D9
:1077180013F022007C007C000E010E01660148F285
:107728000E641422002103A813F083FB41F61D53B5
:107738009C4208BF0024D8F8003004941A78013A13
:10774800052A00F2F881DFE812F0E401E8010802F6
:10775800180224022E022EB18A4B00225A604FF4DE
:107768000644DEE72B79032B1DD8DFE803F015026A
:107778002B3685490B78022B08461AD00B7D022B35
:107788004FF0010317D114225343C2180020C854E4
:107798005068FFF71BFE03E001232B71FFF702FE81
:1077A800002800F0BE80774B00225A6048F20D6432
:1077B800B7E70023E7E7734A13700023536041F6E5
:1077C8001D54AEE771497248002302222B718A804A
:1077D8000968012203F052FBE2E76C4C00262E7187
:1077E8002068694DFFF7F2FD6A4BD4F800C05A884B
:1077F80014235343EA18EE5451682160A188C2F853
:1078080004C011810222A280CAE7B5F814A0AA7D9B
:10781800DFF874B1AEB1022AEB8806D9142101FB56
:107828000AB1DA1C088902440A81142202FB0ABA46
:10783800C3F57F43BAF80A20FD331344AAF80A3087
:107848008DE7142303FB0AB318895C6804EB8004F2
:10785800062A69D8DFE802F0274E36441D5A04008C
:1078680041F61D54AA7DEB88022A06D9142101FB92
:107878000AB1DA1C088902440A81142202FB0ABAF6
:10788800C3F57F43BAF80A20FD331344AAF80A3037
:1078980047E74148414900234360AB690360FFF76C
:1078A80077FE00285BD00223AB75002300930423E6
:1078B800EA182146364803F021FA002831D048F268
:1078C8000D64CFE72B69002B14BF03230123AB758D
:1078D8000023009305F10C02042304F10801E9E7F1
:1078E8000123AB750022EB8800922A699B0004F102
:1078F8000C01DFE703290CBF05230623AB75002322
:107908000093042305F10802E118D3E70623AB75B9
:10791800224B1988204B5868FFF768FD0446002859
:10792800A0D109B0BDE8F08F48F20E649AE7002EA6
:107938007FF415AF2B79012B34D0022B3FF43FAFE6
:10794800002B7FF4ECAE02232B710DF10A01EB68DA
:10795800039303A8CDE90466FFF71AFE10B948F2AD
:107968000964DEE60498BDF80A108388EB80038872
:107978002B81FFF73BFD044627E000BF107F002066
:10798800D47C0020F07E0020147F0020CC7F0020D3
:10799800007C0020F87E0020D47E0020D87F0020C4
:1079A800087F0020814B03AA3146A81DFFF744FE3B
:1079B8007E4B044668B999880498FFF717FD04467A
:1079C80048F209639C423FF4FAAE002C7FF4A9AE5A
:1079D800A7E708223146184613F02BFAF0E7002EE5
:1079E8007FF4BDAE724B1A7BB2B11E731A78013A9E
:1079F800062A3FF694AE01A151F822F0AF7A0200B0
:107A0800D57A0200F37A0200F97A02002777020099
:107A1800FF7A0200117B02001A78072AE6D801A132
:107A280051F822F04D7A0200F5790200F57902004A
:107A3800737A0200877A0200AB7A0200AB7A0200FE
:107A48006F7A02001A895B4901321A8100225A8032
:107A58001A730A78B2FA82F252099A720A7DB2FA55
:107A680082F25209DA72012207E0534958688A887B
:107A78004088033202448A8002221A70B6E74D4CCD
:107A88005A884D49142505FB02420868546850601D
:107A98008888108102200C608880002111740622D9
:107AA800EBE70722E9E79A7A32B9DA7A8AB900224B
:107AB8001A705A805A6082E63E4900229A72CA6851
:107AC800002AF2D1097C0029EFD05A80FFF7F8FD8F
:107AD80051E70022DA72374A116A0029E7D192F891
:107AE8002420002AE3D00122EFE7FFF79BFC42E7BE
:107AF800FFF738FC3FE72F4A5B88142101FB03237B
:107B08005868FFF763FC36E700225A60FFF74AFC23
:107B180031E700238DF80C300DE001228DF80C20A0
:107B28001A89ADF818209A88DB680593ADF81A20F1
:107B380000238DF81C3003A8FFF7D4FB0026494624
:107B48001E48C8F8006000F09DFC1D48012100F0A7
:107B580053FD00287FF4CEADE3E602228DF80C2019
:107B68001A89ADF818209A88ADF81A20DA689B7D32
:107B780005929A1F53425341DBE703228DF80C20EC
:107B8800DA88ADF818201A89DB68ADF81A20059351
:107B9800D1E704228DF80C20DB88ADF818300023DB
:107BA800ADF81A30F3E70523B4E700BFDC7F002007
:107BB800F87E0020147F0020CC7F0020D47C002099
:107BC800C87F00204068FFF78DBD000008B5054854
:107BD800012100F0F9FC18B9BDE80840FFF782BDA3
:107BE80008BD00BFC87F00202DE9F3419846374BF8
:107BF8001B7806460D46002B5CD000295DD009880D
:107C08004FF6FF7399425BD06B88002B58D06B6896
:107C18009B0758D14AB92F890DF102013846FFF761
:107C280071FB30B102B0BDE8F08113885788ADF818
:107C3800023001A8FFF712FC044660B9BDF8023013
:107C4800234A142101FB032358890338C01B588198
:107C580048F20760E6E780F8008000238375BDF8E6
:107C6800023083826B68036101211A4800F0B8FC76
:107C78002B882381B8F1030F6B88A38004BF0423EA
:107C8800A3754FF0000508BF3368E06008BFA36123
:107C98001148E780658101A900F0B9FB36B1E368B6
:107CA80033600E4B75601B89B5723381FFF78EFF09
:107CB8000020B7E748F20160B4E748F20460B1E792
:107CC80048F20360AEE748F20260ABE7F07E0020BE
:107CD800147F00200C7F0020D47C0020F87E002038
:107CE80008B5034607480268042A08D00168064A0E
:107CF80042F82130012100F073FC002008BD48F251
:107D08000B60FBE7D47F0020E07E00202DE9F04FD8
:107D180089B01422002103A813F08BF8794A13784C
:107D280003F0FF01009190463BB103A8FFF7DAFA90
:107D38000027384609B0BDE8F08F101D00F068FC38
:107D48000028F5D140F6F8734FF080521B685C1C90
:107D580008BF6D4B6D4C08BF1B6811695269581CF0
:107D680008BF02FB01F323616949A3F540530022D0
:107D78002046E36002F086FF019407460028D8D128
:107D880064496548DFF8A4B11C238C2200F0E0FAAE
:107D9800BA463D464FF003093C46019BDE6856440F
:107DA8003046FFF769FB012862D0032817D0002866
:107DB8003DD15A494FF0140C0CFB04FC01EB0C02AA
:107DC80001F80C0056600CF110020CF1080C0A4482
:107DD80030466144FFF77EFB45F0020545E0326816
:107DE800531C02D04E4B9A4234D1321D06F58051B5
:107DF800106801302ED104329142F9D1DBF800200D
:107E08003AB902220123CBF80060ABF804200093B2
:107E18000BE014226243414B022099189854414ABE
:107E28004E60548001340881A4B245F001050AF57A
:107E3800805ABAF5405FB0D1B9F1010F98BF00255B
:107E4800EDB2022D03D0062D31D0002D39D148F2E4
:107E58000A676EE7314914226243881809F1FF392D
:107E68004660032088541FFA89F90134A4B2DEE77A
:107E7800009B6BB1294B1422624399180220985435
:107E8800DBF800204A60274A088154800134A4B2F4
:107E980000222549CBF800603046FFF71BFBBBF8F2
:107EA8000420022A0CBF042208221543BFE701233D
:107EB80088F8003003A80023C8F80430FFF712FA46
:107EC80037E702A8FFF7CAFAC8B10123013D0370DA
:107ED8000A2D09D8DFE805F006080608070807088C
:107EE8000F110F000023037102A90B4800F08FFA4D
:107EF800FFF76CFE1DE70323F5E70223F3E748F2DB
:107F0800076716E7F07E002014100010007C0020A0
:107F1800D0F503003C7F0020D47C0020147F002093
:107F2800DEC0ADDEF87E0020D07F0020CC7F0020B0
:107F380073B50D460446C8B1C1B10DF10601FFF78E
:107F480027FBB0B10C4BBDF806006668142202FB93
:107F5800003001210C3000F043FB63682E600C33C5
:107F68006B600123A372002002B070BD48F2046068
:107F7800FAE748F20960F7E7147F002013B50446D2
:107F8800A8B10DF10601FFF703FB98B10C4ABDF843
:107F98000630142101FB0323DA6872B1A27A62B1B8
:107FA800DA680020013ADA60A07202B010BD48F227
:107FB8000460FAE748F20960F7E748F20560F4E779
:107FC800147F002002230022FFF70EBE18B10323FE
:107FD8000022FFF709BE48F204607047114B1B7876
:107FE80013B50446ABB14FF6FF73984214D001A8FD
:107FF800FFF734FA98B10523037001230371C48095
:1080080001A9094800F003FAFFF7E0FD002002B0DB
:1080180010BD48F20160FAE748F20360F7E748F25A
:108028000760F4E7F07E0020D47C00200F4B1B781B
:1080380007B5A3B101A8FFF711FA98B10623037099
:1080480001A90B4800F0E3F90A4B1A780AB101229A
:108058001A73FFF7BBFD002003B05DF804FB48F27C
:108068000160F9E748F20760F6E700BFF07E0020FC
:10807800D47C0020F87E002007B5ADF80600ADF8E6
:1080880004100DF1060001A9FFF7D6FA03B05DF858
:1080980004FB07B51346ADF806000A4600200DF1AB
:1080A8000601FFF7C9FA03B05DF804FB07B51346EC
:1080B800ADF806000A460DF106000021FFF7BCFAEC
:1080C80003B05DF804FB20B119B103680B60002010
:1080D800704748F2046070472DE9F84F3B4B1B7816
:1080E8000446002B6CD000286DD0DFF8E4A01222E3
:1080F800002112F09EFE032323804FF0000BD04690
:1081080014274FF00109DAF80410BAF80A50BAF83F
:1081180008600846FFF7B0F9032808BF238862887B
:1081280004BF03F1FF33238007FB0B832E44DB6876
:108138001344638023891D4463892581B6B233447F
:108148006381C6F58066A389B6B2B34201F108051A
:1081580038BFA68101F58051A94229D92B6801337E
:1081680026D02846FFF7A0F901280AD0022815D002
:108178000028F1D1A3880133A3800AE04FF0010B56
:10818800C1E7E3880133E380E3896A880333134452
:10819800E3816B88033305EB8305DDE7E38884F827
:1081A80010900133E380E389491B03EBA101E181CE
:1081B8000AF1140ABBF1000FE0D00020BDE8F88FE7
:1081C80048F20160FAE748F20460F7E7F07E002021
:1081D800147F00201EF0040F1CBFEFF309800AE093
:1081E800EFF308800549064A884201D8904202D830
:1081F8008D464FF00000034B184700000000012097
:1082080000E0002035820200BFF34F8F0549064B7E
:10821800CA6802F4E0621343CB60BFF34F8F00BF1C
:10822800FDE700BF00ED00E00400FA052DE9F74F77
:10823800064604F009FB04F02BF90028FBD1374C63
:108248003748384B384D9F6A6B88241AE408240451
:1082580044F00104002E59D0D3B1B2693349204605
:1082680004F084FA6B889BB1F3680193B3680093B8
:108278002F49D6E90023204604F097FA6B883BB1D2
:10828800F36900932B49D6E90423204604F081FAC8
:10829800244BDB6A990705D56B881BB12649204614
:1082A80004F060FADFF8A0A0DFF8A0B04FF00008F3
:1082B8004FF0010909FA08F33B4208D05AF8282080
:1082C8002AB16B881BB15946204604F04FFA08F1D1
:1082D8000108B8F11A0FEDD13A0607D56B882BB112
:1082E800104B16495A6B204604F040FA3B0407D558
:1082F8006B882BB10B4B12499A6B204604F036FA67
:108308003046FFF781FF03B0BDE8F08F002BBFD0E8
:108318000C49204604F026FABAE700BFF8E003004B
:1083280000E0030000ED00E0A47A00202CE6030042
:1083380041E6030076E60300D1E6030020E70300E8
:1083480040E703009EE603001CEC030015E703006A
:1083580010B561B1B2FBF3F403FB1424A4B244B921
:10836800C0E9001484608281C381204610BD0E20BC
:10837800FCE70920FAE782B050E8022FC188B2EB87
:10838800324F4FF0000317BF92B241EA014142EA6F
:10839800014104E04268B2EB324F08BF012340E8D4
:1083A8000212002AE8D18DF807309DF80730002B1B
:1083B8000CBF1120002002B0704737B550E8013FCC
:1083C8009DB2C48925448489A54228BF2D1B0489F0
:1083D800A54202BFBFF32F8F002207E0C5EA0305BD
:1083E80040E80154002CE9D14FF001028DF8032038
:1083F8000193019B9DF803200B6002F0FF0322B15B
:108408000B880068184403B030BD1846FBE70A889B
:108418004B889A4209D150E8012FC2EA024240E84B
:108428000123002BF7D1012070470020704737B592
:1084380050E8023F1FFAA3F5C488A54202BFBFF364
:108448002F8F00220DE0C48925448489A54228BFC6
:108458002D1BC3EA054540E80254002CE8D14FF033
:1084680001028DF803200193019B9DF803200B6006
:1084780002F0FF0322B14B880068184403B030BDF6
:108488001846FBE70A884B889A4209D150E8022F20
:10849800C2EA224240E80223002BF7D101207047AC
:1084A8000020704701F01F024B090121914000EBA9
:1084B800830000F065B84B0910B501F01F040121D5
:1084C800A14000EB830000F04FF8E04000F001000D
:1084D80010BD01F01F0301229A404B0900EB8300F5
:1084E800D14300F065B84B0901F01F0150F8230093
:1084F800C84000F0010070472DE9F0474F1E7F0982
:1085080080460E460137002558F8254008EB8509B6
:10851800E44394FAA4F4B4FA84F44FEA451A202CFC
:1085280006D10135AF42EFD834462046BDE8F08782
:108538005444A642F5D921464046FFF7BCFF00281F
:10854800F3D0D9F80040E44394FAA4F4B4FA84F4DC
:10855800E5E710B5034653E8000F0A4643E8002450
:1085680094F0000FF7D110BD10B5034653E8000F83
:1085780040EA010243E8002494F0000FF6D110BD50
:1085880010B5034653E8002F42EA010043E800040F
:1085980094F0000FF6D110BD10B5034653E8000F54
:1085A80000EA010243E8002494F0000FF6D110BD60
:1085B80010B5034653E8002F02EA010043E800041F
:1085C80094F0000FF6D110BD10B5034653E8000F24
:1085D80000EB010243E8002494F0000FF6D110BD2F
:1085E80010B5034653E8002F02EB010043E80004EE
:1085F80094F0000FF6D110BD10B5034653E8002FD4
:10860800A2EB010043E8000494F0000FF6D110BD7E
:108618000121FFF7A9BF0121FFF7B2BF0021FFF732
:10862800BBBF0021FFF7C4BF2DE9F0478368D3F82B
:108638004831C3F340059B0788B0074606D500229A
:10864800114608B0BDE8F04701F018BD012906D968
:108658001E4A022108B0BDE8F04700F0BDBC1C4C22
:108668001C4EDFF874A04FF06408A946361B1C2383
:10867800B6FBF3F6AE4204F11C0402D108B0BDE823
:10868800F08754F81C0C54E90623017900689A1AFB
:108698001B1ADBB2039308FB03F3B3FBF2F3CDE938
:1086A800019334F8043C0093CDE9061254F8083CD1
:1086B80011FB08F13846B1FBF2F1CDE9042152462D
:1086C800082100F089FC0135D4E700BF8DEC0300D8
:1086D800D8E103002CE20300A0EC030010B590B130
:1086E800D0E9012301689B1ADBB20A60013BDBB2C7
:1086F800FF2B026802D10020107110BD11684C1CBC
:1087080014600B70F2E70E20F7E737B50546002432
:108718000DF107008DF80740FEF75EFC2A686B68CC
:10872800116899420ED9481E106011F8014CEB6887
:10873800298B01FB0434AB6811791B1ADBB299420F
:1087480038BF13719DF80700FEF76AFC204603B096
:1087580030BD37B5054600230DF107000C468DF8EE
:108768000730FEF739FC2A681368591C1160E9685C
:10877800641A298BB4FBF1F41C709DF80700FEF70E
:108788004FFC03B030BD30B18A68B2F8483143F0CD
:108798002003A2F848317047436810B59C686068A8
:1087A800036801219B689847A36810B903221A70CF
:1087B80010BD0422FBE70968006812F08FBB08B1FE
:1087C80012F0B3BB704738B5836804460068DD7F94
:1087D800FFF7F5FFA3685A7E2844B0FBF2F302FBCB
:1087E8001300B0FA80F0400938BD10B584680068FD
:1087F800FFF7E5FFE37F627EA07653FA80F3B3FBD1
:10880800F2F102FB113301332375A37F53FA80F091
:108818000131B0FBF2F302FB1300A1750130591CC2
:108828006075E17504F1140010BD38B5836804461D
:1088380000689D7FFFF7C3FFA3685A7E2844B0FBFA
:10884800F2F302FB1300B0FA80F0400938BD0000D3
:108858002DE9F843089E1C460D46E9B9194E1A4BF6
:108868009B1BB2EBD30F4FEAD30804D2174F07EB89
:108878008207A84501D1002309E0736838681968A0
:1088880012F02CFBB146083620B9D9F80430236021
:10889800BDE8F8830135ECE70028ECD0017843689F
:1088A80039B13146104698473368002BE3D026602B
:1088B800EEE7110103EB02125B58002BDBD02260BC
:1088C800E6E700BFC8DE030078DF0300D0790020A8
:1088D80030B50368D3F8405185B00446EDB10023A4
:1088E800092201A9284602F080FD2368029AC3F8EC
:1088F80040210021092201A812F09BFA0023092235
:1089080001A9284602F067FD284602F00CFD2368FD
:10891800D3F8400118B9C3F83C0105B030BD01A92E
:108928000023092202F061FD20680023D0F84001ED
:108938000193092201A902F04EFDEEE707B583680D
:10894800B9B1DA7E8A4211D00B4A009233228DF8EF
:10895800042001F12F028DF805206D22ADF80620C4
:10896800D9766A460549006901F0BFFF03B05DF892
:1089780004FB034AD976F5E71B5B313B7FEE030026
:108988001AF2030007B583681A7F8A4213D045F6A6
:108998001B32ADF8002034228DF8022001F12F029D
:1089A80019778DF803206D22ADF80420034900697A
:1089B8006A4601F09AFF03B05DF804FB7FEE0300FE
:1089C800014901F092BF00BFC9ED03000A460068E3
:1089D800014901F08ABF00BFB0ED030009B1FFF7FC
:1089E800F5BF7047014A024901F07FBF10F203004A
:1089F8007FEE03002DE9F743002506460F4614468F
:108A08000560207840B111F080FE68B1002304F8B9
:108A1800013B33680B2BF4D933680022284647F80A
:108A2800232003B0BDE8F08333685A1C326047F84E
:108A38002340054694F80080B8F1000FE9D0002DD6
:108A480077D1B8F1270F05D0B8F15C0F79D0B8F11C
:108A5800220F66D12046FFF7B2FE611C024620466F
:108A680011F009FF4546E5E72046FFF7A8FE611C1F
:108A78000246204611F0FFFE0025DBE7302826D10C
:108A880002234FF00008E05CA0F13001C9B20729C9
:108A98005FFA83F918D8013341EAC801052B5FFA58
:108AA80081F8F0D1994609F1FF312144204601911E
:108AB800FFF785FE0230A0EB09020199204611F06C
:108AC800DAFE04F8018BB5E7B9F1020FEBD178288B
:108AD8002DD102214FF00008635CA3F13002D2B21D
:108AE800092AC8B20AD842EA081303295FFA83F8A8
:108AF80002D14FF00409D6E70321EDE7A3F16102A3
:108B0800052A03D8573B43EA0813EEE7A3F14102CD
:108B1800052A01D8373BF6E7022808D04FF00309A9
:108B2800C1E7404611F0F1FD00287FF472AF01342F
:108B380080E7A84598D0B8F15C0FF8D160788542F5
:108B48009CD12046FFF73BFE04F10108024641464E
:108B5800204611F090FE44466CE72DE9F3410546A6
:108B68000F461446002614B902B0BDE8F0816868C3
:108B780003682246D3F80C80B91901ABC047019BA2
:108B88001E44E41A002BEED1AB681A78032AEAD007
:108B9800D3F848219206FBD5B3F848216FF3451264
:108BA800A3F84821DFE72DE9F04F2DED028B0446AD
:108BB80083B090460E46002973D00025705D11F0F1
:108BC800A4FD50BB04F1100308EE103A5FFA88FBCD
:108BD8003046FFF7F4FDA36893F81990401BA9EB02
:108BE800080906EB050A484553464FF0000717D910
:108BF80013F8010BCDE9003311F087FD009B20B17C
:108C080013F8012C0A2A34D0B946A268507E08EB22
:108C1800070290422CD90137EAE70135CEE7013740
:108C2800B84219D013F8012B0A2A05EB0709F6D127
:108C3800206901F04FFE3A46274651462046FFF785
:108C48008CFF57F8100FFFF7BBFE5FFA88F1384624
:108C580009F10105FFF7C2FE2069711901F045FE0F
:108C6800206903B0BDEC028BBDE8F04FFFF7A8BE4A
:108C78004F46206901F02EFE3A4651462046FFF73E
:108C88006CFF3D44705D11F040FD40B92069FFF76D
:108C980097FE18EE100A5946FFF7A0FE98E701352F
:108CA800F0E703B0BDEC028BBDE8F08F0A4619B1BE
:108CB8000249006801F019BE704700BFB6ED030015
:108CC8000A4619B10249006801F00FBE704700BF9B
:108CD800BCED030037B50546FFF787FD83790278B9
:108CE800817801339A42044601D1012915D001291E
:108CF80005F1100005D90139C9B20190FFF7D6FF77
:108D080001982378A1798B4209D9013B591AC9B234
:108D1800FFF7D6FFAB680022DA7703B030BD013128
:108D2800C91AC9B2FFF75AFEF4E7F7B50546FFF7C7
:108D38005CFD8778C67804462846FFF744FD78B17D
:108D48002869FFF73DFEB74205F110000ED16178A2
:108D58002378C91AC9B203B0BDE8F040FFF7B0BF25
:108D68002846FFF762FD0028EAD1ECE7A378E1780E
:108D78000190C91AC9B2FFF799FF23786178019861
:108D88008B42E6D9591AC9B203B0BDE8F040FFF7E3
:108D980025BE00002DE9F34105468068424F0024B6
:108DA80080222146A0308DF8034012F042F83F4956
:108DB800286901F09AFD286901F08CFD4FF47A7654
:108DC80047F00107686803680122D3F810800DF1A5
:108DD800030101ABC047019B5BB94FF6C010B84710
:108DE800019B002BEED1013EB6B2002EEAD10D2038
:108DF80035E09DF80330AA681B2B48D092F8A010E4
:108E08001B29EDD1522B42D11444002384F8A03001
:108E180092F8A1105B291FD102F1A20602211D467A
:108E280016F8010B4C1C3B28E1B264B21AD1002C95
:108E380020DB01F1A0041444002314F8010BD8B975
:108E4800FA2B28BFFA23FA2D13752B4628BFFA23CD
:108E5800937582F8A00002E082F8A0300B2002B0DF
:108E6800BDE8F08105EB850300EB4303303B802927
:108E78009DB2D5D10C20F2E703EB830300EB43004E
:108E88004E1C303883B23006F1B2F3D4D5E711194D
:108E98000134E4B2092C81F8A030A1D9002382F86A
:108EA800A0300420DBE700BF40F2030035F20300E6
:108EB80038B50546FFF799FC027843789A4204468C
:108EC8008378C27801D1934214D09A4205D9D21A34
:108ED8000B492869D2B201F008FD237861788B42EA
:108EE80005F1100007D9591AC9B2FFF7E9FEAB68B6
:108EF8009A7FDA7738BDC91AC9B2FFF76FFDF6E76E
:108F0800C2ED0300F8B51E46C3685B680546986065
:108F18004068036817461C68294A2B46A047044640
:108F2800002844D1686902F0FCF9044600283ED1C3
:108F3800A8684FF4A6722146C0E94F4411F079FFA2
:108F4800A9682048B1F848311F4A43F02003A1F826
:108F58004831B1F8483167F38203A1F84831B1F8D4
:108F6800483143F00803A1F8483101230B7045F25A
:108F780018030B83121A154B4FEAD20C2146043002
:108F8800614516D1072A04D9114B1048042211F063
:108F98008FFC66B19DF81810E86803F015FC0028EE
:108FA800A1BFEB68DB6801225A71B8BF04242046D0
:108FB800F8BD50F831703F6843F8047B0131DFE7B2
:108FC8008F870200C8DE030078DF0300D079002015
:108FD800BF870200FFF7C1BD0CB473B506AB0D46E1
:108FE80053F8046B81680193D1F848315B07044654
:108FF80020D5CB7EAB421DD002221B31684611F032
:10900800EFFE29462046FFF799FC206901AA314660
:1090180001F0EAFC9DF800102046FFF78FFC9DF850
:10902800011011B12046FFF7ADFC02B0BDE8704059
:1090380002B07047206901AA314601F0D5FCF4E777
:1090480082680021D18382F820100368014A032135
:10905800FFF7C2BF7FEE030070B583681E78012E4C
:1090680004461AD14068036800219B689847054662
:1090780088B908212046FFF761FC31462046FFF7F2
:1090880081FC2069064901F030FCA36802221A70AD
:109098002046FFF7D5FF284670BD0825FBE700BF2F
:1090A800C8ED0300F8B504468068867FB3187F2BA7
:1090B8000F4615463ADC002A38D0C37FF61A03F16A
:1090C800200113442033F6B20144721C184411F0F5
:1090D800D2FBA068C37F20332A463946184411F0D2
:1090E800CAFBA0682030FFF76AFBA268D37F90779D
:1090F8002033134420460E4A0821FFF76DFFA3686A
:10910800DA7F1544DD772046FFF75DFB40B1206923
:10911800FFF756FC56B12046BDE8F840FFF705BEFC
:109128002046FFF782FB0028F1D1F3E7F8BD00BF26
:109138007FEE03002DE9F04104468068D0F84861CD
:10914800827FC37FC6F30008D51A16F001060F46C2
:10915800EDB23ED17E2A40D83DB103F12001213342
:1091680001442A46184411F086FBA368DA7F1A44A2
:1091780082F82070002E72D19A7F0132D2B29A778B
:10918800134483F82080002D72D02046FFF72DFB72
:109198008278C3789A4204F1100720D1A268D37F5D
:1091A8002033134408212046344AFFF715FFA91B32
:1091B800C9B23846FFF784FDA268D37F0133D3775D
:1091C8002046FFF700FB10B32069BDE8F041FFF728
:1091D800F7BB7E2AC9D9002DC7D1BDE8F081206927
:1091E800274A264901F081FBA268D37F2033134424
:1091F8002046224A0821FFF7EFFE2069214A1F492D
:1092080001F073FB01213846FFF7E0FBD4E7204665
:10921800FFF70BFB0028E0D02046FFF7E6FAC278FC
:109228008378013AD21A12F0FF02054604F11006BB
:1092380003D01549206901F058FB2069FFF7C0FBEE
:10924800E978AB78C91A3046C9B2FFF72FFD2978FB
:1092580001393046C9B2BDE8F041FFF7BFBB002D68
:1092680093D19A7F0132D2B29A77134483F820506F
:10927800064920693A4601F038FB9DE77FEE030076
:1092880014F2030017F20300C2ED0300CBED030054
:109298007FB583680025CDE90155D3F844218DF8C1
:1092A8000C5004460E46002941D1002A3AD0FFF757
:1092B80011FDA0683346D0F84401092201A902F043
:1092C80094F8A068029B857FC0F84431002B4ED1EA
:1092D800A030FFF774FAA36830B303F1A00103F1DB
:1092E800200011F0D9FDA0682030FFF768FA8DF84A
:1092F8000C009DF80C30A268AB42D377937702D26A
:109308002069FFF76FFBA3682D4A20462033082108
:10931800FFF762FE2046FFF756FA00284AD0206978
:10932800FFF74EFB04B070BD83F82000DBE7D3F8ED
:1093380040119142F6D0D3F83C31002BF2D0FFF720
:10934800C9FCA368D3F8440140BB03F12000FFF730
:1093580036FAA36810F0FF05D3F83C21C3F844217E
:1093680019D003F1200103F1A00011F095FDA068C8
:1093780001A9D0F844010023092202F036F8A068B8
:109388009DF80C2000F120010923D0F84401013296
:1093980002F02BF8ADE783F8A050E8E72B46092246
:1093A80001A902F022F8A368019A9DF80C50C3F8AD
:1093B8004421DCE72046FFF738FA0028AFD1B1E7AF
:1093C8007FEE030038B504468068C37F857FED1AB9
:1093D80015F0FF0540D003F12101203301442A464E
:1093E800184411F048FAA268937F013B937720460E
:1093F800FFF7FBF98278C3789A4215D1A268D37F28
:10940800203313442046154A0821FFF7E5FD54F898
:10941800100F1249124A01F068FA691E2046C9B2B3
:10942800BDE83840FFF74CBC0E4A0C49206901F0F2
:109438005CFA2069FFF7D6FAA268D37F2033134479
:109448002046064A0821FFF7C7FD2069064A034956
:10945800BDE8384001F049BA38BD00BF7FEE0300CF
:109468001EF2030014F2030017F203002DE9F04185
:10947800C3685B6890B004460D461868002203A9CB
:1094880002F051F9002840F08C808DB1039801F06A
:1094980093FFA268D2F838310133C2F8383103F0AB
:1094A8000703012B04D00125284610B0BDE8F08140
:1094B8002046FFF79AF981780129064605D901392E
:1094C800C9B204F11000FFF7F1FB3178012905D981
:1094D8000139C9B204F11000FFF7F2FB2069FFF768
:1094E80081FA2DB1304A02212046FFF775FDDBE7EE
:1094F80000230822039804A901F077FF069B07932D
:10950800059B08939DF810308DF8255003F0030251
:10951800012A25D1BDF81020049E0398C3F3C20385
:10952800C2F383178DF82430BA0008230AA901F082
:109538005CFFC6F39526236900933A4607AB0AA950
:10954800304603F0CFFA039801F036FFE3685B6812
:109558000022186803A902F0E6F80028C8D0A2E79C
:10956800022AF0D1BDF81260C3F3C203C6F389160C
:109578008DF824304FF00808082E374628BF0827F2
:10958800434603983A460AA901F02FFFF61B2369C0
:1095980007AA39460AA8B84403F008FB002EEBD105
:1095A800D1E7002580E700BFCEED03004368012125
:1095B8009868FFF75BBFF7B547680191BD68AB686E
:1095C8001E78042E0ED0386801A901F0A2FF0446C7
:1095D80050B9019801F0ECFE032E03D1214628462C
:1095E800FFF744FF03B0F0BDF11E18BF0121284664
:1095F800FFF73CFFE7E700002DE9F04F04468068DD
:10960800A5B0102100F5A470FEF7BAFFA3681B7877
:10961800022B40F08A8000230B93606803680122C4
:109628001D690DF12B010BABA8470B9B002B63D0D9
:109638009DF92B30002BF0DB01F020FFA068437868
:10964800012B00F03E84022B00F04284002B40F0F6
:10965800FC849DF82B500D2D30D00A2D2ED0B0F85B
:10966800482163F38D12A0F84821092D00F0F581F7
:1096780000F2E281002DD0D0082D00F0C8832846E2
:1096880011F048F80028C8D0A3689DF82B10D3F82B
:1096980048211007C2F3C00600F11283987F7E2884
:1096A800BBD8DD7F6A1CD2B2DA771D441A44013078
:1096B80085F8201082F820609877AEE7D0F8483116
:1096C80013F47F5F05D0D0F84831C3F387139D4268
:1096D800CBD1B0F8483165F38D13A0F84831837FBA
:1096E80083BBC0F844312069FFF76AF9A3680222F6
:1096F8001A702046FFF7A4FC00212046FFF7B6FEAB
:1097080098B12368AC4A03212046FFF765FCA3689B
:10971800D3F84821120708D52046A74A2033082144
:10972800FFF75AFC2046FFF700FB206901F0D2F84A
:10973800A0686FF0100100F5A470FEF739FF25B09E
:10974800BDE8F08F90F82030002B5DD1A068203064
:10975800FFF735F8A368002610F0FF05C3F8446149
:1097680022D0D3F83C01002800F08F80334609222C
:1097780017A901F03AFE9DF864309D4240F08580BB
:10978800A068092300F1A0016A1CD0F83C0101F08F
:109798002CFEA06800F1A001203011F09FFBA36807
:1097A800002870D183F8A0002046FFF781FB2046EF
:1097B800FFF709F810B92069FFF702F9A26817A99D
:1097C80020320EA8FFF716F90E9A0346002A8AD00F
:1097D800002840F0A080794F794EF61BF608054620
:1097E800AE42179B40F09D80764A00920221764A4D
:1097F8002046FFF7F1FB79E70135B5F5807F04D105
:10980800002283F82020A1E70025A3682B44EEB2AC
:1098180093F8200010F079FFA3680028ECD16EB10E
:109828009A7F03F120000132521B411911F023F8ED
:10983800A268937F9B1BDBB29377D377A568AB7F36
:109848001F331D445FFA85F8A946EFB2A8EB070657
:1098580099F80000F6B2013D10F057FF0028F3D147
:10986800A268937F03F11F01114489453FF46EAF4D
:109878009E1BA7EB080716443B44DBB286F8200082
:109888009377D37762E783F8A060082705F10A0683
:1098980004EB07086069314601F05BFD05460028C6
:1098A80033D0A368D3F83C01A8B9C3E94F55CDE933
:1098B80017009B7F8DF8643017A9284600230922DA
:1098C80001F089FDA1688A7F0923013220312846E9
:1098D80001F081FD68E70023092217A901F085FD41
:1098E800A068189500230922D0F83C0117A901F0B7
:1098F80072FD00231893A368D3F83C2117929A7F2E
:109908008DF86420C3F83C51D6E74046FEF7E0FFE7
:10991800013FBFD148E72D4A02212046FFF75CFBF3
:10992800E4E67A681846116811F0D8FAB84608379C
:1099380018B10135AE42BFF453AFA0680021102220
:1099480004300F9111F075FAD8F80450EB682BB178
:1099580095E80F00A668043686E80F00D5F808B029
:10996800DFF86C90DFF86CA017AF00264FF0010805
:1099780000250E9B43450BD97868494611F0AEFA8D
:1099880050BBA268B2F8483143F00203A2F848314C
:10999800A3681B69002B49D00E9917AA02EB86020F
:1099A800891B20469847A368B3F848216FF3410202
:1099B800A3F848219AE600BF7FEE0300C8DE030043
:1099C80078DF030010EE0300DCEE0300FCED03007B
:1099D80024EE030027EE03007868514611F07EFA62
:1099E8000028CED013AB00932A460FAB4146584609
:1099F800FEF72EFF6A1CCBD00F9B002BC8D019682E
:109A0800786811F06BFA01350028B2D10F9DEB6828
:109A180033B195E80F00A668043686E80F0046467D
:109A2800D5F808B008F101080437A1E7B34A0221C4
:109A38002046FFF7D1FAB6E71B2D0BD07F2D7FF418
:109A48001EAED0F848311D077FF5E7AD2046FFF779
:109A5800B9FCE2E501234370DFE5D0F848311B0784
:109A68007FF5DBAD837FC3F17F0313F0FF0304931E
:109A78003FF4D3AD00F12001C27FA03011F0B0F95E
:109A8800A368DA7F13440025D87F83F8A05010F02C
:109A98003CFEA2680690431B18BF0123C2F844513C
:109AA80017A9A0320CA80793FEF7A4FF1798FEF792
:109AB80086FECDE90D55C7B22E46A84603950595F5
:109AC800AA460C9B23B1079A013B1344B3427CD8A6
:109AD800069B002B38D124AB03EB860353F8340CD8
:109AE800FEF76DFEC7B224AB03EB86034FF0000B05
:109AF80009930BF1010308930FAB00935A460DAB82
:109B080031464046FEF7A4FE0D9B002B00F0C380B3
:109B18001968099B3A4653F8340C11F033F881461A
:109B2800A8B9039B013303930D9B18680E9B8BB94F
:109B3800FEF745FE049AC5B2EB1B9A4201DDDBB283
:109B48000493CDF814B025E00027CCE7DA46DDF819
:109B580020B0CEE7FEF733FE049BC0B2854238BF83
:109B68000546BBB113AB009340460EAB5246314697
:109B7800FEF76EFE0D9B18680E9BD3F800C009EB2C
:109B880007015FFA89F3425CA2B9049A9A4228BF96
:109B98001A4604920D9B0E93089B002BD6D1584A67
:109BA80004212046FFF718FAB8F1000F79D14FF0D9
:109BB800FF3A73E01CF801109142E6D109F101095E
:109BC800B9F5807FDBD1FF23DFE724AB4FF0000B33
:109BD80003EB86090FAB00935A460DAB314640465E
:109BE800FEF736FEBBF1FF3F05D1454A042120466A
:109BF800FFF7F2F911E50D9B002B3FF40EAD196844
:109C080059F8340C11F06AF90BF1010B0028E1D175
:109C18000D9BD3F80880B8F1000F47D1039B002BA8
:109C28003FF4FBAC012B71D198F800303BB10FAB7E
:109C3800009352460EAB31464046FEF709FE0E9B96
:109C48001868FEF7BCFDB84206D00E9B049A196846
:109C580020463944FFF726FAA368DA7F134493F8BD
:109C6800200010F052FDA36870BBD3F84821D70735
:109C780025D5B3F8482160F30002A3F84821202134
:109C88002046FFF757FAA268B2F8483143F00103BB
:109C9800A2F84831C1E4B8F1000FBFD14FF0000875
:109CA800BCE70D9B4FF0FF3A002BB7D00C9B079AEF
:109CB8000136F6B213449E42FFF403AFAEE720210B
:109CC8002046FFF737FAA8E4DA7F9B7F9A42BFF471
:109CD800A4AC2046FEF789FDA2688578D37F0133BE
:109CE800D3772046FEF781FD8378AB420AD1012164
:109CF80004F11000FEF76AFE8FE400BF2EEE0300A9
:109D08004CEE03002069FEF75BFE86E4A368DFF8EB
:109D180068A300225A7724AB03EB86030793059BBD
:109D2800059A013306930FAB009331460DAB4046BD
:109D3800FEF78EFD0D9B1968079B3A4653F8340CC5
:109D480010F020FF50B9039B013B03930D9B1B6848
:109D58003BB9A2685377039B002B40D0069B059321
:109D6800DDE750460593FEF72AFDA1682844C2B2F4
:109D7800504691F819900992FEF721FD059B08902D
:109D88001846FEF71CFD099A0899059B101A5FFAF8
:109D980080FBA06890F81DC0A9EB0109B9FBF2F29D
:109DA800D2B2BCFBF2F102FB11C20CF1010E12F0AF
:109DB800FF0F80F81DE00CD10093A54A53460721F8
:109DC8002046FFF709F9594604F11000FEF706FE90
:109DD800C1E7A04A07212046FFF7FEF8F3E723680A
:109DE8009D4A20460321FFF7F7F8A368994A2033D4
:109DF80008212046FFF7F0F82046FEF796FF0E9B55
:109E0800049A196820463944FFF74CF905E4D0F85C
:109E180048311E077FF501AC867F002E3FF4FDAB6D
:109E2800C37F002B3FF4F9ABF61A03F12001F6B219
:109E38001F33721C0144184410F01DFDA368DA7F1B
:109E4800013ADA779A7F013A9A77002E37D02A4674
:109E58008249206900F049FD2046FEF7C6FC827859
:109E6800C3789A4213D1A268D37F29462033254666
:109E780013442046774AFFF7AFF855F8100FFEF75E
:109E8800B1FD31462846FEF71BFFFFF7C6BB744AF3
:109E98007049206900F029FD2069FEF7A3FDA2683A
:109EA800D37F2033134429466A4A2046FFF794F8A3
:109EB8006C4A6849206900F018FDFFF7AEBB6A4A92
:109EC800F7E79DF82B305B2B40F0BF800223C2E5FB
:109ED80000234370A368D3F8482111077FF50CAC21
:109EE8009DF82B20313A1B2A3FF697AB01A151F878
:109EF80022F000BF19A0020027A0020047A002001C
:109F08000BA002002396020023960200239602006B
:109F1800239602002396020023960200239602004D
:109F2800239602002396020023960200239602003D
:109F3800239602006D9F0200799F02007D9F020018
:109F4800C99F0200239602000FA002002396020078
:109F58001DA0020023960200239602002396020009
:109F68002BA0020001212046FFF792F9FFF755BB0D
:109F78000021F8E72046FEF738FC037842789A4239
:109F8800054604D18178C27891423FF446AB6A799C
:109F98009A4204F110060ED134492069012200F0DA
:109FA800A4FC69793046FEF78BFEA268D37F0133A3
:109FB800D377FFF732BB01213046FEF707FDF4E700
:109FC8002046FEF712FC8379027801339A4205464F
:109FD80003D18378012B3FF420AB012A20690BD1F0
:109FE800234900F082FC697904F11000FEF7F6FCC1
:109FF800A268D37F013BDBE71E49012200F075FC14
:10A00800F6E703225A702046FEF752FFFFF705BB1A
:10A0180003225A702046FEF75DFEFFF7FEBA0322C0
:10A028005A70D3F84821B3F8481102F0010282F0BF
:10A03800010262F30001A3F84811FFF7EEBA032208
:10A048005A70A368D3F84831FDE4002303E500BF44
:10A0580078EE03007FEE03007EEE0300CBED0300F5
:10A0680014F2030017F2030031F20300C2ED0300FB
:10A07800B6ED0300BCED0300FA0204002DE9F04F31
:10A0880007468BB07F48DFF81C8291460D4610F0DA
:10A098004CFF06467C4810F048FFBB68CDF80080AE
:10A0A800301A7A4A5B68082186B23846FEF794FF70
:10A0B800BB685868FEF783FB0446404610F035FF3E
:10A0C800BB68204482B299683846FEF76CFD704A36
:10A0D80000213846FEF780FFB9F1000F07D035B1EF
:10A0E8004FF00C08AA4608FB0958C24529D1664812
:10A0F80010F01BFF841C3444A4B2624B654A0093E1
:10A1080004F103080821384623461FFA88F8FEF7A9
:10A1180063FF614942463846FEF745FD45B10C26C6
:10A1280006FB0956DFF880B1DFF86891B54222D105
:10A13800BB68D3F80C80B8F1000F5AD10BB0BDE85A
:10A14800F08FDAF80400FEF73AFB0446DAF800006C
:10A15800FEF735FB2044B0420AD9DAF80400FEF7CE
:10A168002EFB0446DAF80000FEF729FB204486B2ED
:10A178000AF10C0AB9E7D5E9002393B34AB301926F
:10A18800414A009208215A463846FEF725FF68687A
:10A19800FEF715FB03902868FEF711FB82463A4844
:10A1A80010F0C3FE039AA21AA2EB0A03181AC1B24E
:10A1B80007F11000FEF712FC384938693A2200F01E
:10A1C80094FBA96889B142463846FEF7ECFC0C3589
:10A1D800ACE7009323464A4608213846FEF7FCFEC2
:10A1E800EFE7002AEDD00092F4E73869FEF7E8FBC4
:10A1F800EDE700220592164606AD009505AB012154
:10A20800404602F10109FEF723FB059C5CB120687A
:10A21800FEF7D5FAB04204D9059B1868FEF7CFFAC5
:10A2280086B24A46E9E7B9F1010F87D01C4ADFF840
:10A2380064A021463846FEF7CFFE2246B41CA4B2DD
:10A2480005AB00950121404602F10109FEF700FB2C
:10A25800059B002B3FF472AF1B680093082123462F
:10A2680052463846FEF7B8FE059B596831B1721D53
:10A2780092B23846FEF797FC4A46E1E73869FEF79E
:10A288009FFBF9E746F20300B8F3030079EE0300F9
:10A2980082EE03008CEE030094EE0300CBED030086
:10A2A800B0EE03003AF20300A7EE030000221146C5
:10A2B800FFF7E4BE022910B5044608D18368D3F835
:10A2C80048319B0703D5BDE81040FFF7EFBF206971
:10A2D800054A064900F009FB2069054A0349BDE81B
:10A2E800104000F002BB00BF22F203007FEE030023
:10A2F80026F20300012906D0022906D18368D3F883
:10A3080048319B0701D5FFF7D1BF024A0221FEF76A
:10A3180063BE00BF2EEE030038B58368D3F848212A
:10A32800C2F3400592070C4606D500221146FFF7F6
:10A33800A5FE2C46204638BD0029FBD05B68024AA2
:10A348000221FEF749FEF5E7BEEE0300012937B505
:10A358000546144604D103B0BDE83040FFF7A6BF58
:10A36800023918BF0121FFF7D7FF48B96368019385
:10A37800044B0093044A236802212846FEF72CFE6A
:10A3880003B030BDE2EE0300D9EE0300012907B5A2
:10A3980004D103B05DF804EBFFF788BF02290AD1A6
:10A3A80053680193084B00931368084AFEF714FE9C
:10A3B80003B05DF804FB8CBF0121002103B05DF8F8
:10A3C80004EBFFF7A9BF00BFE2EE0300D9EE0300DC
:10A3D800013910B518BF01210446FFF79DFF40B9A8
:10A3E800044A0549206900F080FAA36845F218027A
:10A3F8001A8310BD2BF203007FEE030001292DE91B
:10A40800F3410446154637D18668FEF7C3FC38BBCE
:10A41800A36804F11005FA21284693F814809F7D5B
:10A42800FEF7D4FA20691E49FA2200F05EFA2046A7
:10A43800FEF7B0FCA0B9A368197D7176A368A1EBFB
:10A4480008019B7D33762846C9B2FEF739FC317E78
:10A45800C91BC9B2284602B0BDE8F041FEF726BCC8
:10A46800A36845F218021A830E4A0421204602B056
:10A47800BDE8F041FEF7B0BD022994BF00210121DB
:10A48800FFF74AFF48B96B680193074B00932B68A5
:10A49800064A02212046FEF79FFD02B0BDE8F08182
:10A4A800C2ED0300F7EE0300E2EE0300D9EE03006D
:10A4B8002DE9F041013986B018BF01210546FFF7A3
:10A4C8002BFF40BBAB68DFF85480D3F840610446EB
:10A4D800EEB1082C1BD030460023092203A900F056
:10A4E80084FF9DF81420A968304609230132A03161
:10A4F80000F07BFFAB68049EA0330093671C2346E3
:10A50800424600212846FEF767FD3C46E0E7AB6877
:10A51800002283F8A02006B0BDE8F08131EF0300E7
:10A52800013910B518BF01210446FFF7F5FE30B90F
:10A53800A368B3F8482160F38202A3F8482110BD4C
:10A54800013910B518BF01210446FFF7E5FE30B9FF
:10A55800A268B2F8483143F00403A2F8483110BDAC
:10A56800013910B518BF01210446FFF7D5FE30B9EF
:10A57800A368B3F8482160F3C302A3F8482110BDCB
:10A58800013910B518BF01210446FFF7C5FE30B9DF
:10A59800A268B2F8483143F00803A2F8483110BD68
:10A5A800022973B50D4694BF0021012104461646C1
:10A5B800FFF7B2FE014658B9022D0BD1736801931B
:10A5C8000C4B00930C4A336829462046FEF704FDDD
:10A5D80002B070BDA368094AD3F8483113F0080FD8
:10A5E800074B18BF1346074A204602B0BDE8704023
:10A5F800FEF7F2BCE2EE0300D9EE0300052A0400E0
:10A608003BEF03003FEF0300013910B518BF0121EC
:10A618000446FFF781FE48B9A368C3F83801E36828
:10A628005B68BDE81040186801F0C5B810BD0000AF
:10A638007FB5013918BF01210446FFF76DFE0546B5
:10A64800B8B9E3685B681E68304601F0B1F8B168D4
:10A65800A268C0B2CDE9010164234343B3FBF1F31F
:10A66800DBB20093D2F83831034A29462046FEF778
:10A67800B3FC04B070BD00BF50EF03001A60C0689F
:10A688001A4601F069B9000010B4074C0378E35C7E
:10A6980023B15DF8044B043004F038BC5DF8044B7A
:10A6A8000C3004F069B900BF188700204069054ADA
:10A6B8000378D35C13B1043004F0E8BC0C3004F028
:10A6C80025BA00BF188700200378044AD35C13B169
:10A6D800043004F08BBB0C3004F0E4B81887002079
:10A6E80010B504464069FFF7EFFFA368BDE81040C6
:10A6F8001868FCF793BB000037B51A6005461A4680
:10A70800006901F0B4F8044608BB6869134A037885
:10A71800D35CFBB1043004F041FCC0B9FF230193C2
:10A728002869012301AA694601F0DFF878B99DF884
:10A73800042000996869FFF7A7FF6B6893F8293030
:10A74800044623B118B90199286901F044F9204653
:10A7580003B030BD0C3004F055F9DEE7188700204F
:10A7680037B5FF2304460093C06801236A4601A950
:10A7780001F02EF898B9009888B163690B4D0199DA
:10A78800C2B21878285C60B1181D04F013FC30B907
:10A79800A3682246186840F26661FCF726FB03B0FE
:10A7A80030BD03F10C0004F039F9F0E718870020F8
:10A7B80073B50378FF26012B05460C46019623D076
:10A7C800022B18D0F3B9017A206901F004F901AA23
:10A7D800206901960123694601F087F8019A22B1A0
:10A7E80000996069D2B2FFF74FFF63680120D3E98F
:10A7F8000021904706E0017AE06801F021F8204640
:10A80800FFF7AEFF02B070BD017AE06801F018F8FA
:10A818002B7A002BF3D063680020D3E900219047FE
:10A82800EDE7000038B5436893F8283004460D4634
:10A838000BB383681868FCF7F1FA30F008030ED1FF
:10A8480075B16069FFF740FF6168606900220831EF
:10A8580002F0BAFD68B96368012283F8292038BD7F
:10A86800636893F8283043B12046BDE83840FFF7C5
:10A8780077BF0620F3E70029E3D1064AA068002144
:10A88800FCF7A8FA6368012283F828200028EBD097
:10A89800E5E700BFB5A6020038B5044640680D4696
:10A8A800C0E90023002303852022083010F098FA1D
:10A8B8002C612946064A606902F086FD054628B9DA
:10A8C800E06800F07CFF206900F079FF284638BD79
:10A8D800B9A70200826810B504462AB14369016825
:10A8E800006998470023A36010BD0EB403B503990F
:10A8F80021B104AB01AA019300F076F802B05DF82B
:10A9080004EB03B070470A2938B504460D4602D156
:10A918000D21FFF7F8FFA3682268591CA160D554E0
:10A92800D4E901329A4204D32046BDE83840FFF703
:10A93800D1BF38BD2DE9F84F9846DDE90A431546E1
:10A9480082460F460A464FF00109AA420FD2C14576
:10A9580038BFC14613F0010B01D16CB900240126A0
:10A96800B8F1010F1BD908F1FF386E43F8E709F178
:10A978000109B2FBF5F2E8E79B070ED5B8F1000F25
:10A988000CBF30262026A145E9D2013C314650466D
:10A99800FFF7B9FF002CF6D1E0E72026F3E7B7FB75
:10A9A800F6F39D42E1D9DFF83C80B7FBF6F3504659
:10A9B80018F8031006FB1377FFF7A5FF3346AB42E1
:10A9C800B6FBF5F6F1D2BBF1000F02D00CB1A145F0
:10A9D80001D3BDE8F88F20215046013CFFF793FFD3
:10A9E800F4E700BFD8F303002DE9F74F05461746F3
:10A9F8008846002900F0428118F8011B49B92B7BD1
:10AA0800002B00F03B81284603B0BDE8F04FFFF76C
:10AA180061BF252940F0B780002698F800302D2B1B
:10AA2800424608F1010823D0302B24D02B2B25D007
:10AA380000242A2B02F1010123D13B681A1D1B684F
:10AA48003A601C440A4613782E2B26D101324FF067
:10AA5800000A104610F8011BA1F1300CBCF1090FD7
:10AA68001DD80A2303FB0A13A3F1300A0246F0E7B4
:10AA780046F00106D1E746F00206CEE746F00406A6
:10AA8800CBE711F8013CA3F130000928DBD80A22F2
:10AA980002FB0434303C0A46CBE74FF0000A12F8B8
:10AAA800011B01F0FB0068289046F8D0782909D8E6
:10AAB8006F290CD8632962D022D8252963D0582958
:10AAC80000F0888098F80030002B95D197E770390E
:10AAD8000829F7D801A353F821F000BF5FAC0200A2
:10AAE800CDAA0200CDAA0200EDAB0200CDAA020059
:10AAF800CBAB0200CDAA0200CDAA0200DDAB02005A
:10AB0800642901D06929DDD13A68D2F80090111D75
:10AB180089EAE9723960A2EBE9724FF0010B092A60
:10AB280035DCD34538BFD3462CB1B9F1000F01DB72
:10AB3800720700D5013CB30702D5BAF1000F03D064
:10AB4800F00701D44CBB0024B9F1000F2DDAC9F18C
:10AB580000092D212846FFF7D6FE06F00302022A37
:10AB680004D1BAF1000F01D11CBB0024CDE9004685
:10AB780053460A2249462846FFF7DCFEA2E73B680F
:10AB88001A1D19783A602846FFF7BDFE9AE70A238E
:10AB98000BF1010BB2FBF3F2C1E7A345D4D220219C
:10ABA8002846013CFFF7AFFECCE77107D5D52B212E
:10ABB800D0E7A345DAD230212846013CFFF7A3FEAF
:10ABC800D2E73968CDE900460A1D3A6053460A22A1
:10ABD8000968D0E739680A1D3A60CDE9004653464E
:10ABE8001022F5E73B681A1D3A6016F00106D3F803
:10ABF800009028D1B9F1000F03D0484610F095F91C
:10AC08000646B44200D904BB09F1FF3919F8011FFF
:10AC180000293FF457AF2846FFF775FEF6E72846A8
:10AC28000136FFF770FE19F806100029F7D1A64281
:10AC3800BFF448AF002C3FF445AF20212846013C23
:10AC4800FFF761FEF3E70026EDE720212846013CE7
:10AC5800FFF759FED5E73B681A1D3A6030212846B0
:10AC68001C68FFF750FE78212846FFF74CFE0022AB
:10AC78000823CDE90032214610227CE703B0BDE865
:10AC8800F08F00BF13B50B46114698B9144B5B887B
:10AC98006BB1144B1448154AC01A0E23C008009310
:10ACA800134B0004134940F0010001F072FD0E201F
:10ACB80002B010BD6BB90A4B5B88002BF7D0094B6B
:10ACC80009480D4AC01AC0080E2300930004084B17
:10ACD800E8E703601B6802B0BDE81040184700BFF2
:10ACE800C47A002000E0030038E10300E8F3030021
:10ACF8007EF50300EDF303001CF403002DE9F34196
:10AD0800B0B9514B5B88002B00F095804F4B5048F1
:10AD1800504AC01AC0080E244F4B009400044F49F3
:10AD280040F0010001F035FD204602B0BDE8F08199
:10AD38006AB9454B5B88002B7DD0444B4448484A50
:10AD4800C01AC0080E24444B00940004E7E7D0F86A
:10AD580000E0BEF1000F0DD13B4B5B88002B6CD09F
:10AD68003A4B3B483F4AC01AC00808243A4B009463
:10AD78000004D4E76BB9344B5B88002B5FD0334BAE
:10AD88003348394AC01AC0080924334B00940004D8
:10AD9800C5E74568D5F80480B3FBF8F508FB153519
:10ADA8006DB1294B5B88002B49D0284B28482F4A86
:10ADB800C01AC0080924284B00940004AFE78D0787
:10ADC8000DD0214B5B88002B3BD0204B2048284AD4
:10ADD800C01AC0081024204B009400049FE712F00A
:10ADE800030F0CD0184B5B885BB3184B1848214AEB
:10ADF800C01AC0081024184B009400048FE7C568D7
:10AE0800A9420BD34D1EEC180569AC4206D8DEF8F2
:10AE18000C40A44602B0BDE8F04160470A4B5B888D
:10AE28007BB10A4B0A48144AC01AC00810240A4BBE
:10AE38000094000473E70E2476E7082474E70924D5
:10AE480072E7102470E700BFC47A002000E0030016
:10AE580038E10300E8F3030090F50300EDF3030085
:10AE68006AF4030016F4030029F4030070F40300E5
:10AE78009AF40300B2F40300D5F40300F7B5A0B9BF
:10AE8800374B5B88002B63D0364B3748374AC01A9C
:10AE9800C0080E24364B00940004364940F00100E7
:10AEA80001F077FC204603B0F0BDD0F800C0BCF13B
:10AEB800000F0DD12A4B5B88002B4BD0294B2A4819
:10AEC8002D4AC01AC0080824294B00940004E4E75E
:10AED8006AB9234B5B88002B3ED0224B2248274A75
:10AEE800C01AC0080924224B00940004D5E747681B
:10AEF800D7F800E00EF1FF370F420CD0184B5B88F3
:10AF080063B3184B18481E4AC01AC0081024184BBF
:10AF180000940004C1E7C768B9420CD304694D1E08
:10AF28000EFB0255A54206D8DCF81040A44603B033
:10AF3800BDE8F04060470A4B5B887BB1094B0A4883
:10AF4800104AC01AC0081024094B00940004A4E752
:10AF58000E24A7E70824A5E70924A3E71024A1E7FE
:10AF6800C47A002000E0030038E10300E8F303009E
:10AF7800A3F50300EDF3030016F4030029F403001E
:10AF8800FCF4030022F5030029DF704728DF70472F
:10AF980070B503689E6886B004460D466EB11422EB
:10AFA800002168460FF045FFA368059323790195B2
:10AFB8002BB1012B0DD06846B04706B070BD0123F8
:10AFC8008DF8003023690293E3680393636904935F
:10AFD800F1E702238DF80030E3681B030293F5E7DD
:10AFE8000846704700207047024B187A003818BF8F
:10AFF8000120704770800020034B187A0122B0FAB4
:10B0080080F05A74400970477080002008B51046D7
:10B018001A460FF0E5FE002008BD000008B514220E
:10B02800002104480FF005FF0348FDF7A4F90020AC
:10B0380008BD00BF70800020E87C002010B5094CD6
:10B04800094B43602046FDF7E3FA40B908F0A0FA3F
:10B05800064920741C2306488C22FDF779F9002044
:10B0680010BD00BF70800020C4F50300E47F0020FD
:10B07800E87C002070B5244C244E237A25463BB941
:10B0880023492448FDF7D3F9306008B9606070BDE2
:10B09800022334682B72237973B1012B24D0204604
:10B0A8000321FFF775FF00232B726B6018491948BD
:10B0B800BDE87040FDF7E6B9D4E90523D21AB2F528
:10B0C800805FD4E9031028BF4FF480529208012A08
:10B0D80038BF012219441844FFF756FF50B1112810
:10B0E800DDD101232B72D2E7D4E903031844FFF71B
:10B0F8004DFFF3E72B7C002BC9D10146BDE870401A
:10B10800022000F009B800BF70800020888000206D
:10B1180084800020E87C002038B5831E012B45D8A8
:10B12800234C237A002B41D0022B09D1032830D09D
:10B13800204B00221B68E2601A793AB1012A22D01A
:10B14800637C7BBBBDE83840FFF794BFD3E90512A9
:10B158008D1AB5F5805F94BF521902F580529A6135
:10B168009142EDD102284FF0000308BF194623721F
:10B17800104B18BF0D211868FFF70AFF0E490F483A
:10B18800FDF780F9DCE71A6901321A615B699A42B6
:10B19800E7E7E3680133082B01D8E360D0E7002331
:10B1A800E360DFE7BDE8384008F0E2B938BD00BF2A
:10B1B800708000208880002084800020E87C0020A7
:10B1C80000F0FD03012B08D1044B00225A74421EE3
:10B1D800504250411874FFF74DBF704770800020EF
:10B1E80010B5064C201DFDF713FA28B9637C1BB96E
:10B1F800BDE81040FFF73EBF10BD00BF70800020C3
:10B208002DE9F34180460D460F4801A916461F4611
:10B21800FDF7D3F80446A8B11C2200210FF009FE5F
:10B228002D0B0123237101A90748C4F80080A760EA
:10B23800E5606661FDF7EBF8FFF7D2FF002002B08A
:10B24800BDE8F0810420FAE7E87C00202DE9F74307
:10B2580081468846104801A917461E46FDF7ADF8F5
:10B268000446B0B11C2200210FF0E3FD00250A9B23
:10B27800A36001A9C4E9037807482571C4F80090C0
:10B288006661FDF7C4F8FFF7ABFF284603B0BDE8D9
:10B29800F0830420FAE700BFE87C00202DE9F84F8E
:10B2A800B0F806A04579D2F800B09DF828900AFBBE
:10B2B80005F5043D88460BEB0301A94203F104049C
:10B2C80088BFA5EB030BB4FBFAF607460AFB164446
:10B2D800C2F800B04EB9AAEB04055D4528BF5D462B
:10B2E800BBF1000F04D1BDE8F88F3F68013EF1E7DC
:10B2F800043408EB06003C442A46B9F1000F0DD08F
:10B308002146ABEB050B0FF06BFDDA452E443F6889
:10B3180055464FF0000428BF5D46E1E70146204648
:10B32800EFE7FDF7DBB9F8B546790146721E054629
:10B33800002393422D6803D30024A64202D8F8BD07
:10B348000133F6E70F682846FDF703FA013439465A
:10B35800F3E72DE9F843068BCD1C0746FDF7D5F931
:10B36800043E35440446B5FBF6F5F0B14FF480735E
:10B37800EDB28380C680013D076081464FF000082A
:10B38800A84512D23846FDF7C0F9064648B1637998
:10B398000133637108F10108C9F8000007608146AC
:10B3A800EEE72046FFF7BFFF34462046BDE8F883A6
:10B3B80001210430FDF714B910B501210446043009
:10B3C800FDF71AF910F0FF0F04D12046BDE8104030
:10B3D800FFF7A9BF10BD1FB503920022009203AA70
:10B3E800FFF75CFF05B05DF804FB1FB5039201226F
:10B3F800009203AAFFF752FF05B05DF804FB41DF96
:10B4080070470000064B10B500241C70054B1C60EB
:10B41800BFF35F8F0449054800F0EEFA204610BDDF
:10B428009480002098800020FCF503008C80002088
:10B4380007B500230DF107008DF80730FBF7CCFDA9
:10B44800F1EE103A23F09F03E1EE103ABFF35F8F5D
:10B45800094B4022C3F884219DF80700FBF7E0FD63
:10B4680008F096F820B1FFF7CAFF03B05DF804FBB7
:10B4780020BF40BF20BFF8E700E100E07047026846
:10B4880013685268934291BFD01A806801308018BF
:10B4980088BFC01A704703682DE9F0411F681E680D
:10B4A80015465A68964286BF83680133961B8846BC
:10B4B800C268416888BF9E1BB542044607FB02115B
:10B4C8000CD86A4340460FF08BFCA3683D449D426C
:10B4D80088BF002523681D60BDE8F08106FB02F7E0
:10B4E8003A4640460FF07CFCE2686168AD1B6A434F
:10B4F80008EB07000FF074FCECE7036881681A6832
:10B508005B688B4234BF01330023D31A5842584139
:10B518007047F7B5002304460DF107000D468DF876
:10B528000730FBF759FD2046FFF7E7FF10B1237CF2
:10B53800002B3CD12268A66853685168B14234BFD9
:10B5480001310021516030B11168A068814234BFD7
:10B55800013100211160E2686068511E072920D876
:10B56800DFE801F004101F141F1F1F182A78C254A7
:10B578002046FFF784FF23689A68824200D29860C9
:10B58800002415E02A8820F81320F1E72A6840F8FB
:10B598002320EDE7D5E9006700EBC300C0E90067A9
:10B5A800E6E7294602FB03000FF01AFCE0E7042453
:10B5B8009DF80700FBF734FD204603B0F0BD7FB5CA
:10B5C800054601911446AAB10DF10F0000268DF829
:10B5D8000F60FBF701FD2846FFF751FFA0420199D4
:10B5E8000BD322462846FFF756FF34469DF80F0036
:10B5F800FBF716FD204604B070BD0524F6E737B505
:10B60800044600250DF107008DF80750FBF7E4FC10
:10B618000C22294620680FF00CFC9DF80700FBF768
:10B62800FFFC03B030BD13B5002304460DF107003D
:10B638008DF80730FBF7D0FC2046FFF720FF0446C3
:10B648009DF80700FBF7ECFC204602B010BD000097
:10B658002DE9F04F8368D3F84831C3F340059B07C1
:10B668008BB0074606D5002211460BB0BDE8F04F57
:10B67800FEF704BD012906D9214A02210BB0BDE815
:10B68800F04FFDF7A9BC1F4C1F4EDFF88090DFF884
:10B6980080A0DFF880B0361B1C23B6FBF3F6AE4261
:10B6A80002D10BB0BDE8F08FE36808932368D4F8A3
:10B6B80008809A6809922046FFF7B5FF099A94F81E
:10B6C80010E0642303FB00FCBEF1000F0CBFCE4664
:10B6D800D6465343B3FBF8F3CDE90432BCFBF8F18B
:10B6E800089B0191CDE902080093CDE9068E6369B4
:10B6F8005A4608213846FDF76FFC01351C34CEE761
:10B708008DEC0300C8DF030000E0030008F6030027
:10B7180011F603001DF60300036818685B68C31A76
:10B7280058425841704773B5002305460DF107008C
:10B738000C4616468DF80730FBF74EFC2846FFF7F7
:10B74800EBFF002832D129680B682EB90A68A8686F
:10B75800824238BF561C0E60EA686968501E072886
:10B768001ED8DFE800F0040E1D121D1D1D16CB5C4F
:10B77800237000249DF80700FBF752FC204602B016
:10B7880070BD31F813302380F3E751F8233023607C
:10B79800EFE701EBC301D1E90023C4E90023E8E79F
:10B7A80003FB021120460FF01BFBE2E70524E1E74B
:10B7B800036898687047036800229A607047836836
:10B7C80000225A60C3E904229A60DA601A6070475E
:10B7D8002DE9F0410646884617461D4683B9B068EC
:10B7E8007368D0E9031403F1010C0A1B62450ED1FA
:10B7F80000243C6015B3FCF714FF0020BDE8F0817D
:10B808008068FCF705FF0028E9D01120F6E701EA77
:10B81800030223409A4238BF64443B682CBFACEB18
:10B828000204641A9C4228BF1C4633683C601344D7
:10B83800C8F80030C3681C44C460DEE72846DDE76A
:10B84800034680685B68826810B504690133234445
:10B858009B1A8B4209D31144C0E90211FCF7DEFEA2
:10B86800002814BF0020082010BD0420FCE72DE9A3
:10B87800F84F074680688A469046FCF7C9FE81461D
:10B8880080BBD7E901431A69013414449A68A41AA1
:10B89800D8F80020944228BF1446C8F800407E68B3
:10B8A8009D6835400136A6EB050B5C4509D938681B
:10B8B800514628445A460FF093FAAD1B2C44DA44FB
:10B8C8004D4638682246514628440FF089FAB86830
:10B8D800D8F80020836813448360FCF7A2FE48462A
:10B8E800BDE8F88F4FF01109F9E72DE9F041064658
:10B8F8000F461446984673B9B068816842698D1A34
:10B9080011D12560B8F1000F02D00430FCF789FE90
:10B918002846BDE8F08180680430FCF779FE0028ED
:10B92800EAD01125F4E77368D4F800C01A4019402A
:10B938008A420BD2654500D2256033681A443A60C2
:10B9480043692268134443610025E1E701339B1AE8
:10B95800634538BF2360F0E72DE9F8430646806861
:10B9680004300F469146FCF753FE804680BBB26810
:10B9780013699568ED1AD9F800309D4228BF1D4615
:10B98800C9F8005073681169946819401C40A142B5
:10B9980028BF5C1C641AA54208D933683846194484
:10B9A80022460FF01DFA2D1B2744002133682A4632
:10B9B800194438460FF014FAB068D9F80020036922
:10B9C800134403610430FCF72CFE4046BDE8F883BD
:10B9D8004FF01108F9E7806808B582680369D21A40
:10B9E8008A4207D31944C0E904110430FCF719FE50
:10B9F800002008BD0420FCE70B684A6843609342B6
:10BA080008BF0023016008BF43607047436843B123
:10BA18000268916852680B449342436004BF002354
:10BA28004360704770B5446806460D46206818B1F3
:10BA3800B3682946984718B923682B60256070BDFC
:10BA48002468F3E74368186808B102681A60704709
:10BA58004368186870474368186800B97047884297
:10BA680003D102681A600120704703460068F4E7B2
:10BA780010B50D49A1F59472914201D800200FE04C
:10BA88008C1AE30F03EBE4035B1002EBC30452F8D8
:10BA98003330834205D802D204F10802ECE760682B
:10BAA80010BD2146E8E700BFF4FB030008B5FFF727
:10BAB800DFFF024B002808BF184608BDB7FA03008D
:10BAC800F0B595B01D46164608460C46FFF770FCC3
